:100000000C945C000C9479000C9479000C947900A9
:100010000C9479000C9479000C9479000C9479007C
:100020000C9479000C9479000C9479000C9479006C
:100030000C9479000C9479000C9479000C9479005C
:100040000C9495000C9479000C9479000C94790030
:100050000C9479000C9479000C9479000C9479003C
:100060000C9479000C947900000000080002010053
:100070000003040700000000000000000102040863
:100080001020408001020408102001020408102002
:10009000040404040404040402020202020203032E
:1000A0000303030300000000250028002B000000CC
:1000B0000000240027002A0011241FBECFEFD8E043
:1000C000DEBFCDBF11E0A0E0B1E0E2E0F5E002C0AC
:1000D00005900D92AA30B107D9F721E0AAE0B1E06E
:1000E00001C01D92A331B207E1F70E946F020C9488
:1000F0007F020C94000061E08AE00C94FF01CF9332
:10010000DF93C0E0D1E0699179918AE00E947701A4
:1001100064E170E080E090E00E94020181E0CA307A
:10012000D80789F7DF91CF9108951F920F920FB6EC
:100130000F9211242F933F938F939F93AF93BF936D
:1001400080910B0190910C01A0910D01B0910E01D5
:1001500030910A0123E0230F2D3720F40196A11DD1
:10016000B11D05C026E8230F0296A11DB11D2093E5
:100170000A0180930B0190930C01A0930D01B093A1
:100180000E0180910F0190911001A0911101B09189
:1001900012010196A11DB11D80930F0190931001D2
:1001A000A0931101B0931201BF91AF919F918F91D4
:1001B0003F912F910F900FBE0F901F9018953FB752
:1001C000F89480910F0190911001A0911101B091CC
:1001D000120126B5A89B05C02F3F19F00196A11D5D
:1001E000B11D3FBF6627782F892F9A2F620F711D8F
:1001F000811D911D42E0660F771F881F991F4A9548
:10020000D1F708958F929F92AF92BF92CF92DF92D3
:10021000EF92FF926B017C010E94DF004B015C01B9
:10022000C114D104E104F104F1F00E947E020E94A5
:10023000DF00681979098A099B09683E73408105C6
:10024000910570F321E0C21AD108E108F10888EEA7
:10025000880E83E0981EA11CB11CC114D104E104D6
:10026000F10429F7DDCFFF90EF90DF90CF90BF90A2
:10027000AF909F908F900895789484B5826084BDEC
:1002800084B5816084BD85B5826085BD85B581609A
:1002900085BDEEE6F0E0808181608083E1E8F0E0FA
:1002A0001082808182608083808181608083E0E829
:1002B000F0E0808181608083E1EBF0E08081846008
:1002C0008083E0EBF0E0808181608083EAE7F0E00A
:1002D000808184608083808182608083808181606E
:1002E00080838081806880831092C10008951F936D
:1002F000CF93DF93182FEB0161E00E94FF0120975D
:1003000011F460E004C0CF3FD10539F461E0812FE2
:10031000DF91CF911F910C943802E12FF0E0E85962
:10032000FF4FE491E330F9F048F4E130B9F0E23006
:10033000A1F584B5806284BDC8BD34C0E730E9F062
:10034000E83019F1E43049F58091800080628093B3
:100350008000D0938B00C0938A0024C084B580684D
:1003600084BDC7BD1FC080918000806880938000DD
:10037000D0938900C093880015C08091B000806838
:100380008093B000C093B3000DC08091B000806234
:100390008093B000C093B40005C0C038D1050CF004
:1003A000B5CFAFCFDF91CF911F910895833081F00A
:1003B00028F4813099F08230A1F008958730A9F0B7
:1003C0008830B9F08430D1F4809180008F7D03C0F3
:1003D000809180008F7780938000089584B58F7717
:1003E00002C084B58F7D84BD08958091B0008F7761
:1003F00003C08091B0008F7D8093B0000895CF93AB
:10040000DF9390E0FC01E458FF4F2491FC01E0579A
:10041000FF4F8491882349F190E0880F991FFC01D8
:10042000E255FF4FA591B4918C559F4FFC01C591AA
:10043000D4919FB7611108C0F8948C9120958223C4
:100440008C93888182230AC0623051F4F8948C9195
:10045000322F309583238C938881822B888304C02C
:10046000F8948C91822B8C939FBFDF91CF9108954C
:100470000F931F93CF93DF931F92CDB7DEB7282F33
:1004800030E0F901E859FF4F8491F901E458FF4F3A
:100490001491F901E057FF4F04910023C9F088231C
:1004A00021F069830E94D6016981E02FF0E0EE0F10
:1004B000FF1FEC55FF4FA591B4919FB7F8948C9115
:1004C000611103C01095812301C0812B8C939FBFC4
:1004D0000F90DF91CF911F910F91089508950E9481
:1004E0003C010E946E020E947B00C0E0D0E00E94AE
:1004F0007F002097E1F30E940000F9CF0895F8945F
:02050000FFCF2B
:0A050200640005000300C8000100BA
:00000001FF
