:100000000C9462000C948A000C948A000C948A0070
:100010000C948A000C948A000C948A000C948A0038
:100020000C948A000C948A000C948A000C948A0028
:100030000C948A000C948A000C948A000C948A0018
:100040000C94BC020C948A000C945A010C942D0B55
:100050000C948A000C948A000C948A000C948A00F8
:100060000C948A000C948A000000000023002600F3
:10007000290000000000240027002A0000000000E2
:10008000250028002B0004040404040404040202D4
:100090000202020203030303030301020408102007
:1000A0004080010204081020010204081020000012
:1000B0000008000201000003040700000000000027
:1000C0000000530B11241FBECFEFD8E0DEBFCDBF21
:1000D00012E0A0E0B1E0E8E8FCE102C005900D927A
:1000E000A030B107D9F723E0A0E0B2E001C01D9233
:1000F000A231B207E1F710E0C2E6D0E004C02197D8
:10010000FE010E94370EC136D107C9F70E94C60B07
:100110000C94420E0C940000FC01538D448D252F4D
:1001200030E0842F90E0821B930B541710F0CF9691
:10013000089501970895FC01918D828D981761F0C3
:10014000828DDF01A80FB11D5D968C91928D9F5F0E
:100150009F73928F90E008958FEF9FEF0895FC01B9
:10016000918D828D981731F0828DE80FF11D858D6C
:1001700090E008958FEF9FEF0895FC01918D228DFF
:10018000892F90E0805C9F4F821B91098F73992784
:10019000089580E090E0892B29F00E94B209811136
:1001A0000C9400000895833081F028F4813099F098
:1001B0008230A1F008958730A9F08830B9F08430FA
:1001C000D1F4809180008F7D03C0809180008F7773
:1001D00080938000089584B58F7702C084B58F7DA9
:1001E00084BD08958091B0008F7703C08091B000E6
:1001F0008F7D8093B00008953FB7F89480910F02EF
:1002000090911002A0911102B091120226B5A89B04
:1002100005C02F3F19F00196A11DB11D3FBFBA2F98
:10022000A92F982F8827820F911DA11DB11DBC01F8
:10023000CD0142E0660F771F881F991F4A95D1F7BD
:100240000895CF93DF931F92CDB7DEB76983DC01AA
:10025000ED91FC910280F381E02D41E050E0BE0180
:100260006F5F7F4F09950F90DF91CF91089521E047
:10027000FC0184858F3F09F420E0822F08950895C2
:10028000CF93DF931F92CDB7DEB76983DC01ED9189
:10029000FC910280F381E02D41E050E0BE016F5FF0
:1002A0007F4F09950F90DF91CF910895089580E0D9
:1002B00090E008951F920F920FB60F9211242F9382
:1002C0008F939F93EF93FF93E0912502F091260285
:1002D0008081E0912B02F0912C0282FD12C090816E
:1002E00080912E028F5F8F7320912F02821751F021
:1002F000E0912E02F0E0EB5EFD4F958F80932E0291
:1003000001C08081FF91EF919F918F912F910F906C
:100310000FBE0F901F901895FC01848DDF01A80F70
:10032000B11DA35ABF4F2C91848D90E001968F731D
:100330009927848FA689B7892C93A089B1898C913C
:1003400080648C93938D848D981306C00288F38902
:10035000E02D80818F7D80830895EF92FF920F932F
:100360001F93CF93DF93EC0181E0888F9B8D8C8D61
:10037000981305C0E889F989808185FD24C0F62E8F
:100380000B8D10E00F5F1F4F0F731127E02E8C8D28
:10039000E8120CC00FB607FCFACFE889F989808112
:1003A00085FFF5CFCE010E948C01F1CF8B8DFE0130
:1003B000E80FF11DE35AFF4FF0820B8FEA89FB89AA
:1003C0008081806207C0EE89FF896083E889F989AE
:1003D00080818064808381E090E0DF91CF911F91E4
:1003E0000F91FF90EF900895CF93DF93EC01888DEC
:1003F0008823C9F0EA89FB89808185FD05C0A88929
:10040000B9898C9186FD0FC00FB607FCF5CF8081AE
:1004100085FFF2CFA889B9898C9185FFEDCFCE01F8
:100420000E948C01E7CFDF91CF9108951F93CF9366
:10043000DF93282F30E0F901E255FF4F8491F90155
:10044000E656FF4FD491F901EA57FF4FC491CC23F0
:10045000C9F0162F81110E94D300EC2FF0E0EE0FAF
:10046000FF1FE458FF4FA591B4918FB7F894111175
:1004700005C09C91ED2FE095E92302C0EC91ED2B96
:10048000EC938FBFDF91CF911F910895CF93DF93AE
:1004900090E0FC01E656FF4F2491FC01EA57FF4F24
:1004A0008491882361F190E0880F991FFC01EE5838
:1004B000FF4FC591D491FC01E458FF4FA591B49131
:1004C000611109C09FB7F8948881209582238883A1
:1004D000EC912E230BC0623061F49FB7F894388101
:1004E000822F809583238883EC912E2B2C939FBFA2
:1004F00006C08FB7F894E8812E2B28838FBFDF9139
:10050000CF9108958F929F92AF92BF92CF92DF9238
:10051000EF92FF926B017C010E94FC004B015C0199
:10052000C114D104E104F104F1F00E94FC00DC01EB
:10053000CB0188199909AA09BB09883E9340A105F6
:10054000B10570F321E0C21AD108E108F10888EE84
:10055000880E83E0981EA11CB11CC114D104E104D3
:10056000F10419F7DDCFFF90EF90DF90CF90BF90AF
:10057000AF909F908F9008951F920F920FB60F9299
:1005800011242F933F938F939F93AF93BF938091A9
:100590000B0290910C02A0910D02B0910E023091CD
:1005A0000A0223E0230F2D3720F40196A11DB11D6F
:1005B00005C026E8230F0296A11DB11D20930A0253
:1005C00080930B0290930C02A0930D02B0930E0245
:1005D00080910F0290911002A0911102B09112022D
:1005E0000196A11DB11D80930F0290931002A0935C
:1005F0001102B0931202BF91AF919F918F913F91E1
:100600002F910F900FBE0F901F901895CF92DF92F1
:10061000EF92FF920F931F93CF93DF93C5EBD0E040
:1006200001EA10E03DE8E32E30E0F32EFE01849174
:10063000F801C490F701D490DD2079F081110E9477
:10064000D3008D2D90E0880F991F88599F4FFC0192
:10065000A591B4918C91C82249F7DF91CF911F9158
:100660000F91FF90EF90DF90CF900895CF93DF939D
:100670001F92CDB7DEB7898389818EBD00000DB48E
:1006800007FEFDCF8EB52AE030E000002150310991
:10069000E1F70F90DF91CF910895CF93DF93D82F9B
:1006A000C62F80EE0E943603E3E2F0E03197F1F7C7
:1006B0008D2F8F770E9436038C2F0E943603C11135
:1006C00005C08EEEDF91CF910C943603DF91CF9170
:1006D0000895CF92DF92EF92FF920F931F93CF93E3
:1006E000DF931F92CDB7DEB7E82E8B01F42E812F5A
:1006F00099830E943603802F0E943603CE2C998165
:10070000D92E0C0D1D1DC016D10631F0F6018191B8
:100710006F010E943603F7CFF1E0FF120CC08EEE9E
:100720000F90DF91CF911F910F91FF90EF90DF908D
:10073000CF900C9436030F90DF91CF911F910F91C2
:10074000FF90EF90DF90CF900895DF92EF92FF92AD
:100750000F931F93CF93DF937C01C62FD42E862F48
:100760000E9436038701D0E0C8018E199F098C17BB
:100770009D0734F4F80181918F010E943603F4CF74
:10078000F1E0DF120AC08EEEDF91CF911F910F9141
:10079000FF90EF90DF900C943603DF91CF911F9183
:1007A0000F91FF90EF90DF900895CF93DF93EC01CE
:1007B0008FEF0E94360388838AE090E00000019763
:1007C000E9F7DF91CF910895CF93DF931F92CDB7D3
:1007D000DEB71982CE0101960E94D50389810F9060
:1007E000DF91CF91089561E08AE00C94160260E0F9
:1007F0008AE00C941602CF93CFB7F8948091090247
:10080000811127C0E0E9F0E08491E4EAF0E09491FE
:10081000E82FF0E0EE0FFF1FEE58FF4FA591B491C7
:10082000EC91E92321F461E08AE00E94160261E084
:100830008AE00E9446028CB580618CBD8CB58064D4
:100840008CBD61E08DE00E94460261E08BE00E9479
:100850004602809109028F5F80930902CFBF61E059
:100860008AE00E94460260E087E00E94460261E062
:1008700089E00E94460261E08AE00E94160261E07F
:100880008AE00E94160260E089E0CF910C94160283
:10089000CF93DF9300D0CDB7DEB7809113028111E3
:1008A00005C00E94FB0381E0809313020E940603AF
:1008B0000E94F70360E080E20E944D030E9406035D
:1008C0008FEF8A831982AE014F5F5F4FBE016E5F6B
:1008D0007F4F80E20E947F0A0E94F3038A810F907B
:1008E0000F90DF91CF910895FF920F931F93CF93B5
:1008F000DF9300D01F92CDB7DEB78B838B01F42E30
:1009000080910802811105C00E94FB0381E0809361
:1009100008020E9406030E94F70362E08CE20E9434
:100920004D0340E061E0CE0103960E94A50382E002
:100930000E94360380E00E9436038F2D0E9436030A
:100940008EEE0E9436030E9406031A821982AE01BF
:100950004F5F5F4FBE016E5F7F4F8CE20E94CC0AFB
:100960000E94F3038981882329F08A81F80180831A
:1009700081E001C080E00F900F900F90DF91CF9148
:100980001F910F91FF9008950F931F93CF93DF93C3
:100990001F92CDB7DEB78C01DC01ED91FC91008494
:1009A000F185E02D0995892B59F041E0BE016F5F7B
:1009B0007F4FF80184850E947404898190E002C011
:1009C0008FEF9FEF0F90DF91CF911F910F910895BF
:1009D0000F931F93CF93DF931F92CDB7DEB78C0198
:1009E000DC01ED91FC910084F185E02D0995892BC6
:1009F00059F040E0BE016F5F7F4FF80184850E948F
:100A00007404898190E002C08FEF9FEF0F90DF9117
:100A1000CF911F910F910895CF92DF92EF92FF92A5
:100A20000F931F93CF93DF9300D000D0CDB7DEB7E5
:100A3000E0E0F2E000E010E021913191232B81F41D
:100A40007C01FC01D480C5800C831B82809108024C
:100A500081110CC00E94FB0381E08093080206C054
:100A60000F5F1F4F0430110539F73CC00E94060389
:100A70000E94F70363E088E20E944D0382E00E9437
:100A800036038C2D0E9436038D2D0E94360340E0E4
:100A900061E0CE0104960E94A50341E061E0CE0131
:100AA00003960E94A5030E9406031A821982AE01D2
:100AB0004F5F5F4FBE016E5F7F4F88E20E947F0AEB
:100AC0000E94F303F70124813581C801880F991F23
:100AD000FC01E050FE4F31832083FC01E050FF4FCA
:100AE000118300830F900F900F900F90DF91CF91A3
:100AF0001F910F91FF90EF90DF90CF900895CF93CB
:100B0000DF9300D01F92CDB7DEB7FC0184858F3F05
:100B100049F18B8380910802811105C00E94FB037B
:100B200081E0809308020E9406030E94F70361E0BF
:100B30008FE20E944D0341E061E0CE0103960E94E6
:100B4000A5030E9406031A821982AE014F5F5F4F10
:100B5000BE016E5F7F4F8FE20E947F0A0E94F30307
:100B60008A8101C080E00F900F900F90DF91CF91AC
:100B70000895FC0124852F3F71F00E947F05843089
:100B800038F09BEF980F933018F091E08A3009F419
:100B900090E0892F089580E00895EF92FF920F93DF
:100BA0001F93CF93DF9300D01F92CDB7DEB7FC0128
:100BB00094859F3F09F44AC08F019B83809108026E
:100BC000811105C00E94FB0381E0809308020E940E
:100BD00006030E94F70361E08EE20E944D0341E0AC
:100BE00061E0CE0103960E94A5030E9406031A82CB
:100BF0001982AE014F5F5F4FBE016E5F7F4F8EE285
:100C00000E947F0A0E94F303D8011C96EC91F0E049
:100C1000EE0FFF1FE050FF4F8FEF9FEF9183808318
:100C200092E3E92EF12CC8010E947F05882359F038
:100C3000B1E0EB1AF10839F064E670E080E090E092
:100C40000E948202F0CF8FEFF80184870F900F90FF
:100C50000F90DF91CF911F910F91FF90EF9008952A
:100C6000CF92DF92EF92FF920F931F93CF93DF9378
:100C700000D0CDB7DEB76B018A01FC0184858A8381
:100C800080910802811105C00E94FB0381E08093DE
:100C900008020E9406030E94F70361E085E40E94B7
:100CA0004D0341E061E070E0CE0102960E946903CD
:100CB0000E94060319820E94660A892B49F1CE011F
:100CC00001960E94D5038981853C11F50E94E403B9
:100CD0008823D1F08FEF0E943603082F8FEF0E94F8
:100CE0003603002E000C110B102F0027082B760165
:100CF000C00ED11EEC14FD0439F08FEF0E943603B4
:100D0000F70181937F01F6CFCE0101960E94D503B2
:100D10000E94F30381E090E0012B11F080E090E06D
:100D20009195819591090F900F90DF91CF911F912F
:100D30000F91FF90EF90DF90CF900895CF93DF93C6
:100D400000D000D0CDB7DEB7FC0184858F3F59F1CC
:100D50008C8380910802811105C00E94FB0381E011
:100D6000809308020E9406030E94F70361E08BE271
:100D70000E944D0341E061E0CE0104960E94A5036C
:100D80000E9406031B821A821982AE014D5F5F4FDB
:100D9000BE016F5F7F4F8BE20E947F0A0E94F303C8
:100DA00089819A8102C080E090E00F900F900F90AF
:100DB0000F90DF91CF910895BF92CF92DF92EF9283
:100DC000FF920F931F93CF93DF9300D000D0CDB746
:100DD000DEB76C018B017A01FC019485943040F000
:100DE00081E090E0F6019383828380E090E07CC014
:100DF000452BB1F39C8380910802811105C00E94AC
:100E0000FB0381E0809308020E9406030E94F7031F
:100E100062E084E40E944D0340E061E070E0CE01B6
:100E200004960E94690341E0B701C8010E9469036A
:100E30000E9406031A821982AE014F5F5F4FBE0106
:100E40006E5F7F4F84E40E94CC0A0E94F303898185
:100E5000882331F28A81813019F6F60184858B83EB
:100E60001A82198200E010E0BB24B394809108023A
:100E7000811104C00E94FB03B09208020E94060385
:100E80000E94F70361E08AE20E944D0341E061E0C5
:100E9000CE0103960E94A5030E940603AE014F5F98
:100EA0005F4FBE016E5F7F4F8AE20E947F0A0E9401
:100EB000F3038A81811109C00F5F1F4F64E670E060
:100EC00080E090E00E94820202C000E010E08A818F
:100ED000882331F00931110509F482CFC70104C01C
:100EE0000931110518F2F6CF0F900F900F900F9067
:100EF000DF91CF911F910F91FF90EF90DF90CF90F6
:100F0000BF9008952F923F924F925F926F927F927F
:100F10008F929F92AF92BF92CF92DF92EF92FF9209
:100F20000F931F93CF93DF93CDB7DEB760970FB6C4
:100F3000F894DEBF0FBECDBF5C017B016A0100E00B
:100F400012E020E0612C712C88EE282E83E0382EF0
:100F5000412C512C94E1892E91E0992EF801819138
:100F600091918F010097B9F01C821B822D823E82E5
:100F70004F8258869A8289822D87F5014481558156
:100F80008417950741F4CE010196288B0E947F05B6
:100F900028898430E9F02F5F243001F7C30160967F
:100FA0000FB6F894DEBF0FBECDBFDF91CF911F917A
:100FB0000F91FF90EF90DF90CF90BF90AF909F90F8
:100FC0008F907F906F905F904F903F902F900895FB
:100FD000A601B701CE010196288B0E94DC06680E9F
:100FE000791E2889D8CFCF92DF92EF92FF920F938C
:100FF0001F93CF93DF93CDB7DEB728970FB6F89442
:10100000DEBF0FBECDBF8C01F42EE52EE0E0F1E097
:1010100020E030E081919191019631F02F5F3F4FB8
:1010200024303105B9F72FEFD8011C962C932F3FB0
:1010300009F481C0FB0182819381A481B5818983F8
:101040009A83AB83BC8328871F8280910802811119
:1010500005C00E94FB0381E0809308020E94060302
:101060000E94F70364E08DE20E944D0340E064E0DB
:10107000CE0101960E94A50382E00E9436038E2DC8
:101080000E9436038F2D0E94360340E061E0CE01BE
:1010900008960E94A50341E061E0CE0107960E94F8
:1010A000A5030E9406031E821D82AE014B5F5F4FA7
:1010B000BE016A5F7F4F8DE20E947F0A0E94F303A8
:1010C000D8011C968C9190E0FC01EE0FFF1FE050C0
:1010D000FF4F918380838FB7F894C0900B02D0901C
:1010E0000C02E0900D02F0900E028FBFD801ED913E
:1010F000FC910688F789E02DC8010995811124C06B
:101100002FB7F89480910B0290910C02A0910D02E0
:10111000B0910E022FBF8C199D09AE09BF09803115
:101120009742A105B10580F461E070E080E090E0B5
:101130000E948202DBCF68E771E085E192E00E94C5
:10114000190B80E090E00EC0D801ED91FC9106886B
:10115000F789E02DC801099521E090E0811101C0D7
:1011600020E0822F28960FB6F894DEBF0FBECDBFC9
:10117000DF91CF911F910F91FF90EF90DF90CF9073
:1011800008954F925F926F927F929F92AF92BF921B
:10119000CF92DF92EF92FF920F931F93CF93DF9343
:1011A000CDB7DEB72C970FB6F894DEBF0FBECDBF1C
:1011B0007C018B016A0180911302811105C00E949C
:1011C000FB0381E0809313020E9406030E94F70351
:1011D00061E084E30E944D03F80101900020E9F7EB
:1011E0003197BF01601B710B41E0C8010E94A5034C
:1011F0000E9406031F821982AE014F5F5F4FBE013E
:10120000695F7F4F84E30E947F0A8C870E94F3030B
:101210008C85811103C080E090E063C01AE0412C0E
:10122000512C32010FEF992493940B830C830D837F
:101230000E8380911302811104C00E94FB039092DF
:1012400013020E9406030E94F70360E085E30E94F8
:101250004D030E9406031B86AE01455F5F4FBE0132
:10126000695F7F4F85E30E947F0A892B99F04F8049
:10127000588469847A8491E080E04B815C816D813F
:101280007E81441655066606770609F490E0A92E7D
:10129000B82E02C0A12CB12C0E94F303AB2851F44C
:1012A000115009F4B8CF68EE73E080E090E00E943E
:1012B0008202BBCF112309F4AECFD701ED91FC918F
:1012C0000684F785E02D80E791E09A8389834B823D
:1012D0005C826D827E82A601BE016F5F7F4FC70177
:1012E00009952C960FB6F894DEBF0FBECDBFDF91E7
:1012F000CF911F910F91FF90EF90DF90CF90BF9013
:10130000AF909F907F906F905F904F900895CF9295
:10131000DF92EF92FF920F931F93CF93DF936C01B5
:101320007A018B01C0E0D0E0CE15DF0589F0D8014D
:101330006D918D01D601ED91FC910190F081E02D30
:10134000C6010995892B11F47E0102C02196ECCFCC
:10135000C701DF91CF911F910F91FF90EF90DF9028
:10136000CF90089585E192E00E94BD0021E0892B95
:1013700009F420E0822F08956115710579F0FB01D1
:1013800001900020E9F73197AF01461B570BDC01B4
:10139000ED91FC910280F381E02D099480E090E0D2
:1013A00008954F925F926F927F92EF92FF920F9308
:1013B0001F93CF93DF93CDB7DEB7A1970FB6F89405
:1013C000DEBF0FBECDBF7C01FA01CB0119A22230D6
:1013D00008F42AE08E010F5D1F4F422E512C612C24
:1013E000712CBF01A30192010E94150EF901CA01DF
:1013F000015011096A3014F4605D01C0695CD801C4
:101400006C93232B242B252B61F7B801C7010E9475
:10141000BC09A1960FB6F894DEBF0FBECDBFDF9119
:10142000CF911F910F91FF90EF907F906F905F9001
:101430004F9008958F929F92AF92BF92CF92DF927A
:10144000EF92FF920F931F93CF93DF937C01EB01F9
:101450006C0182E0C80ED11C4701E5E08E0E911CA4
:1014600000E010E0F60141916F0150E060E070E0B3
:101470002AE0CE010E94D1095C01E881F981019046
:10148000F081E02D6EE2CE0109958A0D9B1D080FBB
:10149000191FC814D90431F7F701458150E060E005
:1014A00070E02AE0CE010E94D109800F911FDF91E8
:1014B000CF911F910F91FF90EF90DF90CF90BF9051
:1014C000AF909F908F9008950E943D0ECF93DF9331
:1014D000C9EED3E00E94E4038F3E29F0219731F05A
:1014E000803EC1F703C08FEF9FEF06C021E090E080
:1014F000803E09F020E0822FDF91CF910895CF92B6
:10150000DF92EF92FF920F931F93CF93DF931F927F
:10151000CDB7DEB7182F6B017A0119820E94660AD7
:10152000892B19F480E090E02DC0CE0101960E9435
:10153000D503106889818113F5CFCE0101960E94F1
:10154000D5038981813071F78FEF0E943603E11452
:10155000F10411F0F701808300E010E0F7018081D1
:1015600090E00817190744F4C601800F911F0E94EC
:10157000D5030F5F1F4FF2CFCE0101960E94D50316
:1015800081E090E00F90DF91CF911F910F91FF903C
:10159000EF90DF90CF900895CF92DF92EF92FF927D
:1015A0000F931F93CF93DF931F92CDB7DEB7F82E23
:1015B0006B018A0119820E94660A892B19F480E066
:1015C00090E02DC0CE0101960E94D5038F2D80683A
:1015D00099819813F4CF0E94E403811107C0CE01D2
:1015E00001960E94D50381E090E019C08FEF0E9420
:1015F00036030115110511F0F80180837601F80119
:10160000808190E097012C193D09281739073CF794
:101610008FEF0E943603F70181937F01F0CF0F9087
:10162000DF91CF911F910F91FF90EF90DF90CF90BE
:1016300008950F931F93CF93DF93EC010E94BC0991
:101640008C016CE871E0CE010E94BC09800F911FF3
:10165000DF91CF911F910F9108951F920F920FB6B6
:101660000F9211242F933F934F935F936F937F9328
:101670008F939F93AF93BF93EF93FF9385E192E096
:101680000E948C01FF91EF91BF91AF919F918F913B
:101690007F916F915F914F913F912F910F900FBE6E
:1016A0000F901F901895E0EEF2E080E791E09183B3
:1016B00080831282138214821582E5E1F2E01382A4
:1016C000128248EE53E060E070E044835583668305
:1016D000778322E331E03183208325EC30E03587C6
:1016E000248724EC30E03787268720EC30E0318BEC
:1016F000208B21EC30E0338B228B22EC30E0358BD9
:10170000248B26EC30E0378B268B118E128E138EB5
:10171000148EE6EEF2E091838083128213821482AB
:101720001582ECEEF2E091838083128213821482A0
:101730001582E2EFF2E09183808312821382148299
:101740001582E8EFF2E09183808312821382148283
:101750001582EEEFF2E0918380831282138214826D
:101760001582ECE0F3E0918380831282138214826D
:101770001582E4E0F3E01382128286E591E0918322
:10178000808380E590E0958384830895CF93DF93F1
:10179000CDB7DEB761970FB6F894DEBF0FBECDBFF1
:1017A000789484B5826084BD84B5816084BD85B53C
:1017B000826085BD85B5816085BD80916E00816048
:1017C00080936E00109281008091810082608093EE
:1017D00081008091810081608093810080918000F0
:1017E0008160809380008091B10084608093B1001B
:1017F0008091B00081608093B00080917A00846015
:1018000080937A0080917A00826080937A00809140
:101810007A00816080937A0080917A00806880935A
:101820007A001092C10061E08DE00E944602E091D2
:101830002502F091260282E08083E0912102F0915E
:1018400022021082E0912302F09124028FEC808327
:1018500010922D02E0912902F0912A0286E0808305
:10186000E0912702F0912802808180618083E091DD
:101870002702F0912802808188608083E09127020E
:10188000F0912802808180688083E0912702F091A6
:10189000280280818F7D80836FE871E085E192E08E
:1018A0000E94190B68EB7BE080E090E00E948202CE
:1018B0000E9448048F3F09F49AC1CE0101967C0131
:1018C00088E0C82E81E0D82E9924939488248A94A5
:1018D0008091DE029091DF02039709F469C06EE9FE
:1018E00071E085E192E00E94BC096CE071E085E165
:1018F00092E00E94190BF60101900020E9F7319760
:10190000CF01885091405C01ECE0F1E001900020B3
:10191000E9F731978F010C5011408091130281112A
:1019200004C00E94FB03909213020E9406030E94CF
:10193000F70362E081E10E944D0340E0602F8CE0FC
:1019400091E00E94A50341E06A2D88E091E00E94A9
:10195000A5030E9406031A861982A701BE01665FCD
:101960007F4F81E10E947F0A892B09F48A860E94B9
:10197000F3038A858F3F79F01AE068E873E180E02D
:1019800090E00E9482020E944804982F9D7F21F4DB
:10199000115099F701C084E090E09093DF028093AA
:1019A000DE0260E177E280E090E00E94820290CF68
:1019B00084E093E00E940C0567EB71E085E192E022
:1019C0000E94BC0980911302811105C00E94FB0393
:1019D00081E0809313020E9406030E94F70361E0F6
:1019E00083E20E944D038FEF8A8741E061E0CE01E0
:1019F0000A960E94A5030E9406031982A70162EBC2
:101A000072E083E20E947F0A0E94F30362EB72E0BD
:101A100085E192E00E94190B80E791E09B878A871D
:101A20001C861D861E861F8689E0F70111928A9505
:101A3000E9F78AED92E09B838A8386ED92E09E83AC
:101A40008D8382ED92E099878887809113028111BE
:101A500005C00E94FB0381E0809313020E940603ED
:101A60000E94F70361E081E20E944D038FEF898BB2
:101A700041E061E0CE0141960E94A5030E94060369
:101A8000188A0E94660A892BD9F1CE0140960E94DD
:101A9000D5038889813AA1F50E94E403382E882372
:101AA00079F18701612C712C882E912C68147904AE
:101AB00004F58FEF0E943603F8018083412C512CEE
:101AC000C82ED12C4C145D0474F4F801A180B280AE
:101AD000A40CB51C8FEF0E943603F5018083FFEF45
:101AE0004F1A5F0AEFCF8FEF681A780A0D5F1F4F0A
:101AF000DDCF93E0391204C0CE0140960E94D50399
:101B00000E94F3038091DA029091DB02A091DC0243
:101B1000B091DD028C879D87AE87BF876EEB71E049
:101B200085E192E00E94BC0965E172E0CE010A966F
:101B30000E941A0A6CE871E085E192E00E94BC09FB
:101B400080911302811105C00E94FB0381E0809304
:101B500013020E9406030E94F70361E085E20E94DF
:101B60004D038FEF898B41E061E0CE0141960E94E9
:101B7000A5030E940603188A19821A821B821C82FE
:101B8000AE01405F5F4FB70185E20E947F0A0E946D
:101B9000F303C980DA80EB80FC806BEC71E085E1B7
:101BA00092E00E94BC09F7FE14C0E0911502F0918A
:101BB00016020190F081E02D6DE285E192E0099539
:101BC00044275527BA014C195D096E097F092AE09F
:101BD00003C02AE0B701A60185E192E00E94D10985
:101BE00063EE71E085E192E00E94190B07C068EE98
:101BF00071E085E192E00E94190BFFCF61E08DE07A
:101C00000E9416026AEF70E080E090E00E9482027B
:101C100060E08DE00E9416026AEF70E080E090E0E4
:101C20000E9482020E94C900E9CFA1E21A2EAA1BDB
:101C3000BB1BFD010DC0AA1FBB1FEE1FFF1FA2177C
:101C4000B307E407F50720F0A21BB30BE40BF50B79
:101C5000661F771F881F991F1A9469F76095709502
:101C6000809590959B01AC01BD01CF010895EE0FC9
:101C7000FF1F0590F491E02D099481E090E0F89425
:081C80000C94420EF894FFCF12
:101C8800FFFFFFFFFFFFFFFF616C6500616C6500F0
:101C9800000000004001DC0657013F019E06E804F1
:101CA800C404F307C1083006CD05B90537010000A3
:101CB8000000AD0187098C00F401BD009B00AF0056
:101CC80000000000640A870957015601640A640A83
:101CD800640A0000000021018207570156010C0523
:101CE80000000000640A870957015601000000003F
:101CF8001A0A00000000640A4E6F20536F636B6578
:101D08007420617661696C61626C65000D0A004837
:101D18006F6C612061206C612057694669004174CD
:101D280074656D7074696E6720746F20636F6E6E72
:101D380065637420746F20535349443A2000495016
:101D480020416464726573733A20007369676E6139
:101D58006C20737472656E677468202852535349F7
:101D6800293A002064426D00576946692073686902
:101D7800656C64206E6F742070726573656E740094
:00000001FF
